:107E0000112484B714BE81FFEED082E08093C000BD
:107E100088E18093C10096E09093C20090E1909336
:107E2000C400809360008EE080936000612C712C10
:107E300098E1E92E28E0D22E33E0F32ECC24C3942F
:107E400045E0B42E51E1A52EA9D0813489F4A6D005
:107E50008983B0D08981823819F484E098D094C0A5
:107E6000813819F484E093D08FC083E090D08CC027
:107E7000823419F484E1AAD087C0853419F485E0EE
:107E8000A5D082C0853549F489D0682E87D0712C61
:107E9000782A660C771C8ED077C0863529F484E06A
:107EA00095D080E074D070C0843609F040C076D0A0
:107EB00075D0982E73D0611480E7780618F000E032
:107EC00011E004C0F301F7BEE895F9CF67D0F801DF
:107ED00081938F019E12FACF6114F0E77F0618F0AC
:107EE000F301F7BEE89566D007B600FCFDCFA3010D
:107EF000A0E0B1E08C9112969D0121503109F90169
:107F0000208190E0922BFA010C01C7BEE895112464
:107F10004E5F5F4FA038F1E0BF0761F7F301B7BED6
:107F2000E89507B600FCFDCFA7BEE8952DC08437C5
:107F3000C1F434D033D0982E31D03CD0F301862C0C
:107F4000890C8F010F5F1F4F849121D0801207C0D1
:107F5000FFEF6F1A7F0A9A94690C711C15C0F80123
:107F6000F0CF853741F426D08EE111D085E90FD0CE
:107F70008FE00DD009C0813531F4E0926000D092DD
:107F8000600018D001C016D080E101D05DCF909183
:107F9000C00095FFFCCF8093C60008958091C0007B
:107FA00087FFFCCF8091C00084FD01C0A89580911F
:107FB000C6000895F3DF803239F088E180936000D5
:107FC00088E080936000FFCF84E1E1CFCF93C82F9A
:107FD000E5DFC150E9F7CF91EDCFE0E6F0E098E1C1
:107FE000908380830895E0E6F0E088E1808310824A
:067FF000EE27FF270994B3
:027FFE00040479
:0400000300007E007B
:00000001FF
